:100000008FC0A1C0A0C09FC09EC09DC09CC09BC00F
:100010009AC099C098C097C096C095C094C093C02C
:1000200092C091C090C000407A10F35A00A0724E66
:1000300018090010A5D4E80000E87648170000E48D
:100040000B54020000CA9A3B000000E1F5050000D5
:1000500080969800000040420F000000A08601003A
:100060000000102700000000E8030000000064000A
:10007000000000000A000000000001000000000075
:100080002C76D888DC674F0823DFC1DFAE59E1B199
:10009000B796E5E3E453C63AE651997696E8E6C2A8
:1000A0008426EB898C9B62ED407C6FFCEFBC9C9FAF
:1000B00040F2BAA56FA5F490055A2AF75C936B6CD1
:1000C000F9676DC11BFCE0E40D47FEF520E6B500C5
:1000D000D0ED902E0300943577050080841E080033
:1000E00000204E0A000000C80C333333330F986EE3
:1000F00012831141EF8D2114893BE65516CFFEE6A0
:10010000DB18D1844B381BF77C1D901DA4BBE42465
:10011000203284725E228100C9F124ECA1E53D27E2
:1001200011241FBECFE5D4E0DEBFCDBF10E0A0E6B6
:10013000B0E0E2E8FFE002C005900D92A43CB107F8
:10014000D9F735D11CC75CCF98B39F70282F207F7B
:10015000922B98BBC298C09A32E03A95F1F700C052
:10016000C098EFE8F1E03197F1F700C0000028B344
:100170002F70F0E18F9FC0011124822B88BBC09AA1
:1001800032E03A95F1F700C0C0988FE99FE00197FF
:10019000F1F700C00000089598B39F70282F207FCA
:1001A000922B98BBC29AC09A32E03A95F1F700C000
:1001B000C098EFE8F1E03197F1F700C0000028B3F4
:1001C0002F70F0E18F9FC0011124822B88BBC09A51
:1001D00032E03A95F1F700C0C0988FE99FE00197AF
:1001E000F1F700C0000008958FEF87BB8FE39CE913
:1001F0000197F1F700C0000082E0A6DF88E2A4DFEB
:100200008CE0A2DF86E0A0DF81E09EDF8FE99FE047
:100210000197F1F700C000000895CF93DF93EC0140
:100220008881882329F02196B7DF89918111FCCF3D
:10023000DF91CF910895CF93DF93EA01811107C039
:10024000603168F4862F8F7080687EDF08C081304F
:1002500031F4603120F4862F8F70806C75DFCE0111
:10026000DCDFDF91CF91089581E06EDF8FE99FE0C1
:100270000197F1F700C0000080E866DF0895A098BC
:10028000A198A29887E886B980E487B90895CF92AB
:10029000DF92EF92FF9280E487B9369A87EC90E084
:1002A0000197F1F700C0000064B170E080E090E0D9
:1002B000C8D26B017C0165B170E080E090E0C1D2F2
:1002C00020E030E040E853E472D3A7019601E9D181
:1002D00020E030E040E751E46AD320E030EC4FE723
:1002E00054E447D2FF90EF90DF90CF900895CF92E3
:1002F000DF92EF92FF9281E487B9369A87EC90E023
:100300000197F1F700C0000064B170E080E090E078
:1003100098D26B017C0165B170E080E090E091D2F1
:1003200020E030E040E853E442D3A7019601B9D180
:1003300020E030E048E452E43AD320E030EC4FE7EC
:1003400054E417D2FF90EF90DF90CF900895CF92B2
:10035000DF92EF92FF9280E487B9369A87EC90E0C3
:100360000197F1F700C0000064B170E080E090E018
:1003700068D26B017C0165B170E080E090E061D2F1
:1003800020E030E040E853E412D3A701960189D180
:1003900020E030E040E751E40AD320E030EC4FE7C2
:1003A00054E4E7D1FF90EF90DF90CF900895CF9382
:1003B000DF93CDB7DEB72F970FB6F894DEBF0FBE31
:1003C000CDBF12DF5CDF80EC81BB61DF6B017C01A4
:1003D000BEDF4B015C018E010F5F1F4F22E045E045
:1003E000C701B60147D3065F1F4F22E045E0C501B4
:1003F000B40140D323E333E34BE551E4C701B60135
:10040000D2D21816DCF440E650E060E080E013DF62
:100410004CE650E060E081E00EDFAE014F5F5F4FE1
:1004200062E081E008DF2FEF80E792E0215080401A
:100430009040E1F700C0000017DFC7CF20E030E0B8
:1004400040E051E4C701B601AED288230CF4DCC011
:1004500023E333E34BE551E4C701B60186D1181617
:100460000CF4D2C020E030E040E752E4C501B40112
:100470009AD28823ECF0969A4FE650E060E080E054
:10048000DADE4BE750E060E081E0D5DEAE01455FAB
:100490005F4F62E081E0CFDE2FEF80E792E02150F6
:1004A00080409040E1F700C00000DEDE96988DCFDE
:1004B00020E030E040E252E4C501B40174D21816E5
:1004C0000CF059C020E030E040E752E4C501B4012F
:1004D0004CD188230CF04FC0969A979A4CE650E086
:1004E00060E081E0A8DEAE014F5F5F4F62E081E037
:1004F000A2DE0F2EFCE1EF2EF12CF02DF8DE8E01A6
:100500000A5F1F4F22E045E0B5D24EE750E06AE0B7
:1005100081E091DEA8016CE081E08DDE41E850E0F1
:1005200060E080E088DE2FEF84E39CE02150804093
:100530009040E1F700C0000041E950E060E080E059
:100540007ADE2FEF84E39CE0215080409040E1F779
:1005500000C0000021E0E21AF10881F69698979811
:100560008FEF93ED20E3815090402040E1F700C0F1
:1005700000007ADE2ACF20E030E040E252E4C501FC
:10058000B401F3D018160CF420CF979A41E850E04C
:1005900060E080E050DE4CE650E060E081E04BDE61
:1005A000AE014F5F5F4F62E081E045DE0F2EF8E362
:1005B000EF2EF12CF02D9BDE8E010A5F1F4F22E003
:1005C00045E058D24EE750E06AE081E034DEA80111
:1005D0006CE081E030DE8FEF94E32CE081509040BE
:1005E0002040E1F700C0000081E0E81AF10819F7A7
:1005F00097989FEF23ED80E3915020408040E1F7F2
:1006000000C0000031DEE1CE2AE037ED43EA5CE3D2
:10061000C701B601C8D1181624F520E030E040E04B
:1006200051E4C701B601A1D08823DCF441EA50E0CF
:1006300060E080E000DE4CE650E060E081E0FBDD61
:10064000AE014F5F5F4F62E081E0F5DD9FEF20E795
:1006500082E0915020408040E1F700C0000004DEBD
:10066000B4CE2AE037ED43EA5CE3C701B6017DD0A2
:1006700018160CF4AACE4FEA50E060E080E0DBDD13
:1006800046EB50E060E081E0D6DD9FEF20E782E0BE
:10069000915020408040E1F700C00000E5DD95CE9C
:1006A0005058BB27AA270ED044C135D130F03AD1DB
:1006B00020F031F49F3F11F41EF42AC10EF4E095AE
:1006C000E7FB20C1E92F46D180F3BA176207730711
:1006D0008407950718F071F49EF55EC10EF4E0955D
:1006E0000B2EBA2FA02D0B01B90190010C01CA01EC
:1006F000A0011124FF27591B99F0593F50F4503E97
:1007000068F11A16F040A22F232F342F4427585F88
:10071000F3CF469537952795A795F0405395C9F7A0
:100720007EF41F16BA0B620B730B840BBAF0915058
:10073000A1F0FF0FBB1F661F771F881FC2F70EC0F7
:10074000BA0F621F731F841F48F4879577956795CA
:10075000B795F7959E3F08F0B3CF9395880F08F0B3
:100760009927EE0F979587950895A8D008F481E012
:1007700008950CD0DEC0D6D040F0CDD030F021F4BA
:100780005F3F19F0BFC0511108C1C2C0E3D098F358
:100790009923C9F35523B1F3951B550BBB27AA2702
:1007A00062177307840738F09F5F5F4F220F331F74
:1007B000441FAA1FA9F333D00E2E3AF0E0E830D040
:1007C00091505040E695001CCAF729D0FE2F27D043
:1007D000660F771F881FBB1F261737074807AB0711
:1007E000B0E809F0BB0B802DBF01FF2793585F4F86
:1007F0002AF09E3F510568F085C0CFC05F3FECF303
:10080000983EDCF3869577956795B795F7959F5F4A
:10081000C9F7880F911D9695879597F90895E1E09E
:10082000660F771F881FBB1F621773078407BA07FD
:1008300020F0621B730B840BBA0BEE1F88F7E09558
:100840000895E89409C097FB3EF4909580957095C3
:1008500061957F4F8F4F9F4F9923A9F0F92F96E90C
:10086000BB279395F695879577956795B795F11181
:10087000F8CFFAF4BB0F11F460FF1BC06F5F7F4F1E
:100880008F4F9F4F16C0882311F096E911C0772330
:1008900021F09EE8872F762F05C0662371F096E839
:1008A000862F70E060E02AF09A95660F771F881F08
:1008B000DAF7880F9695879597F90895990F0008AC
:1008C000550FAA0BE0E8FEEF16161706E807F90722
:1008D000C0F012161306E407F50798F0621B730BBD
:1008E000840B950B39F40A2661F0232B242B252B3E
:1008F00021F408950A2609F4A140A6958FEF811DE1
:10090000811D089597F99F6780E870E060E0089581
:100910009FEF80EC089500240A9416161706180617
:100920000906089500240A941216130614060506F3
:100930000895092E0394000C11F4882352F0BB0F84
:1009400040F4BF2B11F460FF04C06F5F7F4F8F4FE7
:100950009F4F089557FD9058440F551F59F05F3F22
:1009600071F04795880F97FB991F61F09F3F79F0D1
:1009700087950895121613061406551FF2CF469553
:10098000F1DF08C0161617061806991FF1CF8695D5
:100990007105610508940895E894BB2766277727B9
:1009A000CB0197F908958ADF08F48FEF08950BD0F3
:1009B000C0CFB1DF28F0B6DF18F0952309F0A2CF41
:1009C000A7CF1124EACFC6DFA0F3959FD1F3950FEF
:1009D00050E0551F629FF001729FBB27F00DB11DC3
:1009E000639FAA27F00DB11DAA1F649F6627B00D53
:1009F000A11D661F829F2227B00DA11D621F739F3C
:100A0000B00DA11D621F839FA00D611D221F749F49
:100A10003327A00D611D231F849F600D211D822F90
:100A2000762F6A2F11249F5750408AF0E1F08823D7
:100A30004AF0EE0FFF1FBB1F661F771F881F9150E4
:100A40005040A9F79E3F510570F05CCFA6CF5F3FA5
:100A5000ECF3983EDCF3869577956795B795F79517
:100A6000E7959F5FC1F7FE2B880F911D969587959F
:100A700097F90895EF920F931F93CF93DF93E801B7
:100A800047FD02C034E001C034E1042E000C550BD8
:100A900057FF03C0519541955109E32E022F242F92
:100AA000AE0107D0CE01DF91CF911F910F91EF9052
:100AB0000895A9E0B0E0EEE5F5E030C26A01122F3A
:100AC000B02E2BE3201720F0FF24F394F00E02C089
:100AD0002CE3F22E0F2D27E0AE014F5F5F4F40D188
:100AE000BC014981842F8970813031F0E1FC06C05E
:100AF000E0FE06C090E205C09DE203C09BE201C09B
:100B000090E05E2D507143FF3CC0911102C083E024
:100B100001C084E0811718F4212F281B01C020E0B8
:100B200051110BC0F601822F30E2882319F0319366
:100B30008150FBCFC20ED11C20E0992329F0D601B1
:100B40009C93F60131966F01C6010396E2FE0AC03E
:100B50003EE4D6013C9341E411964C9311971296D2
:100B60003C9306C03EE6F601308341E64183328382
:100B7000FC01322F40E2332309F442C0419331504B
:100B8000FACF42FF44C0911102C083E001C084E06B
:100B9000811718F4212F281B01C020E051110BC030
:100BA000F601822F30E2882319F031938150FBCF78
:100BB000C20ED11C20E0992329F0D6019C93F601A6
:100BC00031966F01C6010396E2FE0BC039E4D601EF
:100BD0003C933EE411963C93119736E412963C9375
:100BE00007C039E6F60130833EE6318336E63283CC
:100BF000FC01322F40E2332319F041933150FBCFF7
:100C0000FC01E20FF11D10828EEF9FEFA6C021E0E4
:100C100030E0911102C020E030E0161617061CF4F7
:100C2000FB01319602C0E1E0F0E02E0F3F1FBB2038
:100C300021F0EB2DF0E0319602C0E0E0F0E02E0F65
:100C40003F1FE12FF0E02E173F071CF4121B212F4E
:100C500001C020E08E2D887159F4F601822F30E218
:100C6000882319F031938150FBCFC20ED11C20E0B4
:100C7000992329F0D6019C93F60131966F01511109
:100C80000BC0F601822F90E3882319F091938150D5
:100C9000FBCFC20ED11C20E00F2D060F9A81342FFE
:100CA000307144FF03C0913309F40150101624F44D
:100CB000093018F008E001C001E0AB0177FF02C085
:100CC00040E050E0FB01E41BF50BA1E0B0E0AC0F0D
:100CD000BD1FEA0FFB1F8EE2A82E4B01801A910860
:100CE0000B2D10E01195019511094F3FBFEF5B07E8
:100CF00021F4D601AC9211966D01641775072CF0A2
:100D00008416950614F4818101C080E34150510995
:100D10003196D60111967D014017510724F0D60176
:100D20008C936701E2CF6417750739F4963320F48A
:100D3000953319F4311101C081E3F6018083F70185
:100D4000822F90E2882319F091938150FBCFF70115
:100D5000E20FF11D108280E090E02996ECE0FAC0ED
:100D6000283008F027E03327DA01990F311D87FD7D
:100D7000916000966105710539F432602E5F3D93F4
:100D800030E32A95E1F708959F3F30F080387105F0
:100D9000610509F03C5F3C5F3D93913008F080684D
:100DA000911DDF93CF931F930F93FF92EF92192F13
:100DB000987F9695E92F96959695E90FFF27E0582D
:100DC000FF4F99273327EE24FF24A701E701059061
:100DD0000894079428F4360FE71EF81E491F511D8A
:100DE000660F771F881F991F0694A1F70590079437
:100DF00028F4E70EF81E491F561FC11D770F881FE4
:100E0000991F661F0694A1F70590079428F4F80E21
:100E1000491F561FC71FD11D880F991F661F771FB7
:100E20000694A1F70590079420F4490F561FC71F99
:100E3000D81F990F661F771F881F0694A9F7849102
:100E40001095177041F0D695C79557954795F7942B
:100E5000E7941A95C1F7E6E2F0E0689415901591D1
:100E600035916591959105907FE27395E118F10AAE
:100E7000430B560BC90BD009C0F7E10CF11E431F01
:100E8000561FC91FD01D7EF4703311F48A95E6CF2A
:100E9000E894015030F0080F0AF40027021708F414
:100EA000202F2395022F7A3328F079E37D932A951A
:100EB000E9F710C07D932A9589F606949795679572
:100EC000379517951794E118F10A430B560BC90B88
:100ED000D00998F023957E9173957A3308F070E3EA
:100EE0007C932013B8F77E9170617D9330F08395E9
:100EF00071E37D9370E32A95E1F71124EF90FF9061
:100F00000F911F91CF91DF91992787FD90950895BB
:100F10002F923F924F925F926F927F928F929F9209
:100F2000AF92BF92CF92DF92EF92FF920F931F93F7
:100F3000CF93DF93CDB7DEB7CA1BDB0B0FB6F894A8
:100F4000DEBF0FBECDBF09942A88398848885F84E8
:100F50006E847D848C849B84AA84B984C884DF8059
:100F6000EE80FD800C811B81AA81B981CE0FD11D3D
:100F70000FB6F894DEBF0FBECDBFED010895F89413
:020F8000FFCFA1
:100F82004241542069732066756C6C00563A0042E7
:100F9200415420697320686F742100543A00413A29
:100FA20000424154206973206368617267696E6709
:100FB2000042415420697320686F74212020202050
:100FC200004241542069732062726F6B656E004269
:100FD2004154206973006E6F7420636F6E6E656397
:040FE20074656400CE
:00000001FF
